:020000040800F2
:1000000000000220211B0008B91A0008BB1A0008D2
:10001000BD1A0008BF1A0008C11A0008000000003D
:10002000000000000000000000000000310E000889
:10003000C31A000800000000C10E0008C51A00081D
:10004000711B0008711B0008711B0008711B000860
:10005000711B0008711B0008711B0008711B000850
:10006000711B0008711B0008711B0008711B000840
:10007000711B0008711B0008711B0008711B000830
:10008000711B0008711B0008711B0008711B000820
:10009000711B0008711B0008711B0008711B000810
:1000A000711B0008711B0008711B0008711B000800
:1000B000711B0008711B0008711B0008711B0008F0
:1000C000711B0008711B0008711B0008711B0008E0
:1000D000711B0008711B0008711B0008711B0008D0
:1000E000711B0008711B0008711B0008711B0008C0
:1000F000711B0008711B0008711B0008711B0008B0
:10010000711B0008711B0008711B0008711B00089F
:10011000711B0008711B0008711B0008711B00088F
:10012000711B0008711B0008711B0008711B00087F
:10013000711B0008711B0008711B0008711B00086F
:10014000711B0008711B0008711B0008711B00085F
:10015000711B0008711B0008711B0008711B00084F
:10016000711B0008711B0008711B0008711B00083F
:10017000711B0008711B0008711B000800000000C3
:08018000711B0008711B00084F
:1001900010B5054C237833B9044B13B10448AFF3C1
:1001A00000800123237010BD10000020000000001B
:1001B000CC1B000808B5034B1BB103490348AFF340
:1001C000008008BD0000000014000020CC1B0008C7
:1001D00053B94AB9002908BF00281CBF4FF0FF31AE
:1001E0004FF0FF3000F07AB9ADF1080C6DE904CEA4
:1001F00000F006F8DDF804E0DDE9022304B0704702
:100200002DE9F0478C460D460446089E002B51D13F
:100210008A4217466DD9B2FA82FEBEF1000F0BD0AA
:10022000CEF1200C01FA0EF520FA0CFC02FA0EF7C2
:100230004CEA050C00FA0EF44FEA174A250CBCFBF9
:10024000FAF81FFA87F90AFB18CC45EA0C4508FBB7
:1002500009F3AB420AD9ED1908F1FF3280F023818E
:10026000AB4240F22081A8F102083D44ED1AA4B24D
:10027000B5FBFAF00AFB105544EA054400FB09F906
:10028000A14509D9E41900F1FF3380F00A81A145A5
:1002900040F2078102383C44A4EB090440EA0840DC
:1002A0000021002E61D024FA0EF400233460736024
:1002B000BDE8F0878B4207D9002E54D0002186E894
:1002C00021000846BDE8F087B3FA83F1002940F029
:1002D0008E80AB4202D3824200F2FA80841A65EB30
:1002E00003050120AC46002E3FD086E81010BDE883
:1002F000F08712B90127B7FBF2F7B7FA87FEBEF114
:10030000000F34D1EB1B3A0C1FFA87FC0121B3FB21
:10031000F2F8250C02FB183345EA03450CFB08F301
:10032000AB4207D9ED1908F1FF3002D2AB4200F21F
:10033000D1808046ED1AA3B2B5FBF2F002FB105556
:1003400043EA05440CFB00FCA44507D9E41900F17D
:10035000FF3302D2A44500F2B8801846A4EB0C0487
:1003600040EA08409DE731463046BDE8F087CEF1CF
:10037000200405FA0EF307FA0EF720FA04F83A0CF7
:1003800025FA04F448EA0308B4FBF2F14FEA1845F1
:1003900002FB11441FFA87FC45EA044501FB0CF3FC
:1003A000AB4200FA0EF409D9ED1901F1FF3080F0EB
:1003B0008A80AB4240F2878002393D44EB1A1FFA33
:1003C00088F5B3FBF2F002FB103345EA034500FB6E
:1003D0000CF3AB4207D9ED1900F1FF386FD2AB42F5
:1003E0006DD902383D44EB1A40EA01418FE7C1F173
:1003F000200722FA07F88B4005FA01F448EA0303C4
:1004000020FA07FE4FEA134CFD404EEA040EB5FBFE
:10041000FCF94FEA1E440CFB19551FFA83F844EA15
:10042000054509FB08F4AC4202FA01F200FA01FAB0
:1004300008D9ED1809F1FF3043D2AC4241D9A9F1F6
:1004400002091D442D1B1FFA8EFEB5FBFCF00CFBB0
:1004500010554EEA054400FB08F8A04507D9E418FA
:1004600000F1FF3529D2A04527D902381C4440EAC3
:100470000940A4EB0804A0FB02894C45C6464D4642
:1004800015D312D056B1BAEB0E0364EB050404FA8F
:1004900007F7CB401F43CC40376074600021BDE8B4
:1004A000F0871846F8E69046E0E6C245EAD2B8EB97
:1004B000020E69EB03050138E4E72846D7E740461A
:1004C00091E78146BEE7014678E702383C4445E7BC
:1004D000084608E7A8F102083D442BE7704700BF33
:1004E00038B50E4A0E4B054618784FF47A73B3FBB5
:1004F000F0F31068B0FBF3F000F088F8044658B948
:100500000F2D09D8024629464FF0FF3000F04AF877
:10051000044B20461D6038BD012038BD0C00002072
:10052000000000200400002008B50B4B1A6842F4BC
:1005300000721A601A6842F480621A601A6842F403
:1005400080721A60032000F01BF80F20FFF7C8FF2D
:1005500001F090FA002008BD003C0240034A044B21
:1005600011681B780B441360704700BF783D002072
:1005700000000020014B1868704700BF783D002044
:10058000074AD36823F4E0631B041B0C43F0BF63EA
:10059000000243F4003300F4E0600343D36070478B
:1005A00000ED00E0174B30B5DC68C4F30224C4F161
:1005B0000703251D042B28BF0423062D4FF001053A
:1005C00005FA03F303F1FF338CBF033C0024194009
:1005D000A14005FA04F4013C2240002842EA01024D
:1005E0004FEA0212ADBF00F1604000F00F00064B71
:1005F00000F56140B5BFD2B2D2B21A5480F80023E0
:1006000030BD00BF00ED00E014ED00E00138B0F1B6
:10061000807F0AD2064B074A5860F02182F82310E7
:100620000020072298601A6070470120704700BFC1
:1006300010E000E000ED00E02DE9F04F85B00B6820
:10064000DFF8AC81684ADFF8AC91019300234FF0EA
:10065000010E019C0EFA03FE0EEA0406B64540F0B8
:10066000AE804C6824F01007022F16D14FEAD30A4F
:1006700000EB8A0A03F0070BDAF820504FEA8B0BE5
:100680004FF00F0C0CFA0BFC25EA0C0C0D6905FA67
:100690000BF545EA0C05CAF820504FEA430A03253A
:1006A000D0F800B005FA0AF5ED4304F0030C0BEAAC
:1006B000050B0CFA0AFC013F4CEA0B0C012FC0F8A9
:1006C00000C011D8876807EA050BCF6807FA0AFC53
:1006D0004CEA0B078760476827EA0E0EC4F3001741
:1006E0009F4047EA0E074760C7683D408F6807FA9A
:1006F0000AF73D43C560E50061D54FF0000BCDF82A
:100700000CB0D8F84470394D47F48047C8F84470AD
:10071000D8F8447007F480470397039F23F003073A
:1007200007F1804707F59C3703F0030CD7F808A0C2
:100730004FEA8C0C4FF00F0E0EFA0CFEA8422AEA7C
:100740000E0E43D005F58065A84241D005F58065C1
:10075000A8423FD005F58065A8423DD005F58065EB
:10076000A8423BD048453BD005F50065A84239D0AA
:1007700005F58065A84214BF0825072505FA0CF584
:1007800045EA0E05BD601568F74314F4803F0CBFC1
:100790003D4035431560556814F4003F0CBF3D40A3
:1007A00035435560956814F4801F0CBF3D403543B8
:1007B0009560D568A40254BF3D403543D5600133F0
:1007C000102B7FF444AF05B0BDE8F08F5D46D5E750
:1007D0000125D3E70225D1E70325CFE70425CDE79F
:1007E0000525CBE70625C9E7003C01400000024093
:1007F00000380240001402400AB1816170470904C8
:10080000FBE7436931EA030308BF090481617047CC
:100810002DE9F341044618B9012002B0BDE8F0818A
:100820000368DD0710D42368980758D423681A0793
:1008300000F19A8023685B0700F1B880A269002A62
:1008400040F019810020E8E7A64B9A6802F00C02FC
:10085000042A07D09A6802F00C02082A0AD15B68C1
:10086000590207D59F4B1B689A03DCD56368002BA0
:10087000D9D1D1E763689B4DB3F5803F11D12B6887
:1008800043F480332B60FFF775FE964D06462B68C8
:100890009B03C8D4FFF76EFE801B6428F7D90320A2
:1008A000BBE7B3F5A02F04D12B6843F480232B6062
:1008B000E5E72A6822F480322A602A6822F480223E
:1008C0002A60002BDFD1FFF755FE06462B689F03F9
:1008D000A9D5FFF74FFE801B6428F7D9DFE7814BCE
:1008E0009A6812F00C0F07D09A6802F00C02082ADE
:1008F00011D15B685E020ED47A4B1A68950702D557
:10090000E268012A88D11A68216922F0F80242EAD5
:10091000C1021A608AE7E268734BB2B101221A6021
:10092000FFF728FE6F4D06462B68980707D52B6802
:10093000226923F0F80343EAC2032B6076E7FFF74E
:1009400019FE801B0228EFD9A9E71A60FFF712FEF3
:10095000644D06462B6899077FF568AFFFF70AFEDE
:10096000801B0228F6D99AE76269604B7AB10122AE
:100970001A60FFF7FFFD5B4D06466B6F9F073FF563
:1009800059AFFFF7F7FD801B0228F6D987E71A60F9
:10099000FFF7F0FD534D06466B6F98077FF54AAFA2
:1009A000FFF7E8FD801B0228F6D978E74D4B1A6C5B
:1009B00012F0805228D101921A6C42F080521A64CF
:1009C0001B6C03F080530193019B0126484D2B685B
:1009D000D9051BD5A368434D012B27D12B6F43F0BD
:1009E00001032B67FFF7C6FD3E4D074641F28838ED
:1009F0002B6F9B0739D5002E3FF420AF394A136C7B
:100A000023F08053136419E70026DFE72B6843F4D3
:100A100080732B60FFF7AEFD07462B68DA05D9D44B
:100A2000FFF7A8FDC01B0228F7D938E7052B04D132
:100A30002B6F43F004032B67D0E72A6F22F00102EB
:100A40002A672A6F22F004022A67002BCAD1FFF717
:100A500091FD41F2883807462B6F9807CBD5FFF7F9
:100A600089FDC01B4045F7D919E7FFF783FDC01B7F
:100A70004045BDD913E71B4DAB6803F00C03082BB1
:100A80003FF4CAAE1B4E0023022A336034D1FFF775
:100A900071FD07462B6899011ED4226AE36913434E
:100AA000626A43EA8213E26A43EA0263A26A0D4C75
:100AB0005208013A43EA02436B6001233360FFF7B7
:100AC00059FD054623689A013FF5BCAEFFF752FD7C
:100AD000401B0228F6D9E2E6FFF74CFDC01B0228B6
:100AE000D8D9DCE60038024000004742800E474279
:100AF0000070004060004742FFF73CFD04462B6851
:100B00009B017FF59FAEFFF735FD001B0228F6D94C
:100B1000C5E600BF134908B58B6803F00C03042B2E
:100B200003D0082B03D0104808BD104808BD4A6800
:100B30004B68496813F4800314BF0C480A48C1F39A
:100B4000881118BF002302F03F02A1FB0001FFF74C
:100B50003FFB044B5B68C3F3014301335B00B0FB15
:100B6000F3F008BD003802400024F40040787D0115
:100B70002DE9F0410D46044610B90120BDE8F08191
:100B8000444B1A6802F00F028A4228D321688F076B
:100B90002DD4C80740D43F4B1A6802F00F0295428B
:100BA00066D3226851076CD4130707D53A4A2169E6
:100BB000936823F4604343EAC1039360FFF7AAFFFD
:100BC000354B364A9B68C3F30313D35CD840344B90
:100BD00018600F20FFF784FC0020BDE8F081CAB246
:100BE0001A701B6803F00F039942C6D1CEE72A4B57
:100BF00011F0040F1EBF9A6842F4E0529A600E078B
:100C000042BF9A6842F460429A609A68A06822F0F3
:100C1000F00202439A60BCE762681F4B012A1DD1B3
:100C20001B6813F4003FA8D01B4EB36823F00303E6
:100C30001343B360FFF79EFC41F288380746B36860
:100C4000626803F00C03B3EB820FA4D0FFF792FCB1
:100C5000C01B4045F3D90320BDE8F081911E012956
:100C60001B6802D813F0007FDDE713F0020FDAE70C
:100C7000EAB21A701B6803F00F039D427FF47DAF48
:100C80008FE70549E0688B6823F4E05303438B60EA
:100C90008AE700BF003C024000380240091C0008FF
:100CA0000C00002008B500F03BFC002008BD30B56A
:100CB000B0F90840028A0B4690E8220085B0842CE7
:100CC00014BF0334002403A801900094284600F0C8
:100CD00057FB01280CBF0398002005B030BD08B5B4
:100CE000002808BF012000F069FD002008BD08B5FC
:100CF00000F0C2FD012803D0BDE8084000F012B9A1
:100D000008BD00F1080343604FF0FF32C360036188
:100D100000238260036070470023036170474368CB
:100D20004B609A688A609A685160996003680861AC
:100D30000133036070470A68531C30B50AD1036958
:100D40005A684A6091608B6059600368086101339A
:100D5000036030BD00F108035C682568AA42EFD348
:100D60002346F9E74168826803698A6082685160B6
:100D70005968884208BF5A60002202611A68013A25
:100D80001A6018687047000082B0002301930D4B71
:100D90001B68013308D04FF0500383F31188BFF371
:100DA0006F8FBFF34F8FFEE74FF0500383F311882F
:100DB000BFF36F8FBFF34F8F019B002BFCD002B0AE
:100DC000704700BF0800002008480068006880F3F2
:100DD00008884FF0000080F3148862B661B6BFF354
:100DE0004F8FBFF36F8F00DF00BF000008ED00E002
:100DF000DFF80C00016841F47001016070470000E9
:100E000088ED00E04FF0807340F8043C074B40F859
:100E10000C3C21F001016FF0020340F8081C40F87F
:100E2000202C40F8243C4438704700BF890D00084E
:100E3000074B19680868B0E8F04F80F30988BFF3E2
:100E40006F8F4FF0000080F311887047AFF3008080
:100E50004C3C00204FF0500383F31188BFF36F8F99
:100E6000BFF34F8F0A4A13680133012B13600DD172
:100E7000084B1B6813F0FF0F08D04FF0500383F3AB
:100E80001188BFF36F8FBFF34F8FFEE7704700BF2E
:100E90000800002004ED00E0084A136843B94FF051
:100EA000500383F31188BFF36F8FBFF34F8FFEE7BB
:100EB000013B13600BB983F31188704708000020D1
:100EC000EFF30980BFF36F8F154B1A681EF0100FF8
:100ED00008BF20ED108A20E9F04F10602DE90900CD
:100EE0004FF0500080F31188BFF34F8FBFF36F8F27
:100EF00000F088FC4FF0000080F3118809BC1968ED
:100F00000868B0E8F04F1EF0100F08BFB0EC108A70
:100F100080F30988BFF36F8F704700BFAFF3008085
:100F20004C3C002008B54FF0500383F31188BFF309
:100F30006F8FBFF34F8F00F037FB18B1034B4FF0AB
:100F400080521A60002383F3118808BD04ED00E08D
:100F5000084A0949002313600B60084B4FF47A716B
:100F60001B68B3FBF1F30649013B0B6007231360D9
:100F7000704700BF10E000E018E000E00C00002027
:100F800014E000E0394B3A4A13B51968914208D190
:100F90004FF0500383F31188BFF36F8FBFF34F8F70
:100FA000FEE71A68334B9A4208D14FF0500383F39F
:100FB0001188BFF36F8FBFF34F8FFEE72E4B1A7868
:100FC000D2B20192FF221A701B782C4ADBB28DF844
:100FD00003309DF8033003F050031370284B0722B1
:100FE0001A6000219DF80300000602F1FF340DD4C1
:100FF00001B11A601A68032A11D04FF0500383F32D
:101000001188BFF36F8FBFF34F8FFEE79DF803206A
:101010005200D2B28DF8032001212246E2E71202EB
:1010200002F4E0621A60019B134ADBB21370154BA5
:101030001A6842F470021A601A6842F070421A602C
:10104000FFF786FF104B00241C60FFF7D1FE0F4A0C
:10105000136843F040431360FFF7B6FE00F0D2FB85
:10106000FFF792FE204602B010BD00BF00ED00E089
:1010700071C20F4170C20F4100E400E02C0000205B
:101080003000002020ED00E00800002034EF00E0F8
:1010900010B50F4B1A68824218D35C681919884240
:1010A00001BF4168184609195960446801198A420C
:1010B00007D1084909688A421FBF51681268091997
:1010C00041609842026018BF186010BD1346E1E706
:1010D000443C0020340000202DE9F041044600F09B
:1010E0005BFA3E493E4D0B680BBB3E4A56071FBF9D
:1010F000D01D20F0070002F570531B1A14BF0246E2
:101100004FF470531344083B23F00703364E0B6033
:1011100000207060326058601860981A1360334B7A
:1011200050601860324B18604FF000432B602F68FE
:10113000274216D1002C41D004F1080358071CBFE8
:1011400023F00703083363B1294A1668B342904677
:1011500007D8254A15686868834204D809688D4213
:1011600007D100242AE02C68002CF7D02A46254617
:10117000F1E7296814681160C21A102A0FD9E8181B
:10118000410708D04FF0500383F31188BFF36F8FEE
:10119000BFF34F8FFEE742606B60FFF779FF1349A3
:1011A0006B680868F61A1F4386424FF00003C8F8C0
:1011B000006038BF0E6008346F602B6000F086FA64
:1011C000630708D04FF0500383F31188BFF36F8F8C
:1011D000BFF34F8FFEE72046BDE8F08134000020CA
:1011E000383C002038000020443C0020403C0020D7
:1011F0003C3C002010B5044670B3184A50F8043C3B
:101200001268134208D14FF0500383F31188BFF3E3
:101210006F8FBFF34F8FFEE750F8081C41B14FF0BE
:10122000500383F31188BFF36F8FBFF34F8FFEE737
:1012300023EA020340F8043C00F0AEF9084A54F8EF
:10124000043C1168A4F108000B441360FFF720FF71
:10125000BDE8104000F03ABA10BD00BF383C002095
:101260003C3C0020064A13681968064B19B94FF038
:10127000FF321A6070471268D268D2685268F8E785
:10128000503C0020283D0020F8B51B4B1B4E1D682C
:101290000446306804300F46FFF764FD334640B91A
:1012A0003168174EC96A32680120884022EA00027C
:1012B0003260621C07D137B1196812480431BDE8A9
:1012C000F840FFF72CBD2C441A68A542546007D99A
:1012D0000D4A10681968BDE8F8400431FFF72BBDCE
:1012E0000A4A106819680431FFF725FD084B1A688F
:1012F000944238BF1C60F8BD703D00204C3C00207B
:10130000F83C0020483D0020543C0020503C002088
:10131000283D002080B5DFF86480144F144C154E32
:10132000236863B9144B1B68012BF8D94FF0805325
:10133000C8F80030BFF34F8FBFF36F8FEEE7FFF7B2
:1013400089FDFB68DD68281DFFF70CFD3368013B54
:1013500033602368013B2360FFF79EFD286BFFF796
:1013600049FF2846FFF746FFDAE700BF5C3D002053
:10137000E83C0020E43C0020583C002004ED00E064
:101380002DE9F84F4FEA820A804650460F469946AB
:101390000B9EFFF7A1FE0546002800F09680542022
:1013A000FFF79AFE0446002800F08C80AAF1040A98
:1013B000056355447B1E25F0070A00F134020F3700
:1013C000597802F8011B13F8011F09B1BB42F7D18C
:1013D0000A9D062D28BF06254FF0000B271DE5624C
:1013E0006564384684F843B0C4F848B0FFF794FC0D
:1013F000C5F1070504F11800FFF78EFCC4F84CB0E6
:101400002461A561646284F850B04A464146504662
:10141000FFF7F8FC206006B13460FFF71BFD324B8C
:10142000324E1A68DFF8F08001321A603568002DFC
:101430004ED134601B68012B1DD108EB050014351B
:10144000FFF75FFC8C2DF8D1DFF8D090284D48468F
:10145000FFF757FC2846FFF754FC2648FFF751FCDE
:101460002548FFF74EFC2548FFF74BFC244BC3F8FB
:101470000090244B1D60244A2449136808680133F6
:101480001360E26A012505FA02F3034314200B609E
:1014900000FB02803946FFF742FCFFF7FDFC1C4BC6
:1014A0001B6863B13368DA6AE36A9A4207D2194B60
:1014B0004FF080521A60BFF34F8FBFF36F8F2846F3
:1014C000BDE8F88F2846FFF795FE4FF0FF35F6E7A9
:1014D0000F4B1B68002BCED13368DA6AE36A9A425D
:1014E00098BF3460C7E700BFE43C00204C3C0020BC
:1014F000103D0020303D00205C3D0020483D002094
:10150000503C0020543C0020F43C0020F83C0020DB
:10151000443D002004ED00E0583C0020FC3C00204D
:1015200013B5174B019300240094234680221549DC
:101530001548FFF725FF012814D14FF0500383F31E
:101540001188BFF36F8FBFF34F8F104B4FF0FF32F7
:101550001A600F4B18600F4B1C6002B0BDE81040C2
:10156000FFF710BD013008D14FF0500383F311880D
:10157000BFF36F8FBFF34F8FFEE702B010BD00BF08
:10158000243D0020F81B000815130008283D00200A
:10159000443D0020703D0020024A1368013313606F
:1015A000704700BFF03C00202DE9F84F3C4B1B6812
:1015B000002B53D13B4B1C6801341C60BCB93A4B27
:1015C0001A68126842B14FF0500383F31188BFF3D9
:1015D0006F8FBFF34F8FFEE7344A196810681860A9
:1015E0001160334A136801331360FFF73BFE314D3E
:1015F000314F2B689C424FF0000B3ED3DFF8A880A0
:10160000DFF8C490D8F80020126872BB4FF0FF32A8
:101610002A6032E006F1040A5046FFF7A3FBB16AE4
:1016200019B106F11800FFF79DFBF06AD9F80030F8
:10163000012202FA00F11943204BC9F800104FF0C3
:10164000140E51460EFB0030FFF769FB3868F16A53
:10165000C26A914228BF4FF0010BD3E7184A1368C2
:10166000013313604FF0000B11E0D8F80020D2686E
:10167000D66871688C42CDD229603A680F4BD16A26
:1016800014224A439A58022A28BF4FF0010B0D4AF0
:101690001268002A18BF4FF0010B5846BDE8F88FBA
:1016A000F03C0020703D0020503C0020543C0020C5
:1016B0002C3D0020283D00204C3C0020583C0020C0
:1016C000EC3C0020743D0020F83C00202DE9F8435C
:1016D000314C236843B94FF0500383F31188BFF3B3
:1016E0006F8FBFF34F8FFEE7FFF7B4FB2368013B1B
:1016F000236024682CB10024FFF7CEFB2046BDE810
:10170000F883264B1B68002BF5D0DFF8A890244FF8
:10171000DFF8A480D9F80030E3B90CB1FFF7A2FDDF
:10172000204D2C6844B1204E0127FFF73DFF00B14A
:101730003760013CF9D12C601B4B1B68002BDAD0C1
:101740001A4B4FF080521A60BFF34F8FBFF36F8F69
:101750000124D1E7D9F80C30DC68261D04F118000B
:10176000FFF700FB3046FFF7FDFAE26A3968012512
:1017700005FA02F314200B4300FB028031463B6064
:10178000FFF7CDFA0A4BE26A1B68DB6A9A4224BF74
:10179000054B1D60BEE700BFF03C0020E43C00208C
:1017A000F83C0020EC3C0020743D002004ED00E0FB
:1017B0004C3C0020303D0020583C002008B540B98A
:1017C0000E4B4FF080521A60BFF34F8FBFF36F8FF5
:1017D00008BD0B4B196841B14FF0500383F31188DA
:1017E000BFF36F8FBFF34F8FFEE7FFF7D5FEFFF715
:1017F0004BFDFFF76BFF0028E2D008BD04ED00E0D1
:10180000F03C0020174B1A68174B10B512B101229B
:101810001A6010BD1A60154B1B68B3FA83F3DBB274
:10182000C3F11F03142212495A4388188C5844B933
:101830004FF0500383F31188BFF36F8FBFF34F8FC7
:10184000FEE744680832646844600A44944204BF76
:1018500062684260142202FB03135B68DA68054B7E
:10186000D6E700BFF03C0020743D0020F83C00208B
:10187000583C00204C3C0020054B1B6833B1054B05
:101880001B68002B0CBF022000207047012070470E
:10189000443D0020F03C002010B5194C4FF40041AD
:1018A0002046FEF7AEFF4FF47A70FFF718FA4FF4B8
:1018B00000412046FEF7A5FF4FF47A70FFF70FFABC
:1018C0004FF400412046FEF79CFF4FF47A70FFF77B
:1018D00006FA4FF400412046FEF793FF4FF47A706A
:1018E000FFF7FDF972B6074B074A1B68126882F3CF
:1018F0000888064A0649926811659847CEE700BFF6
:1019000000180240040002080000020800ED00E098
:101910000050000830B5074D0FCD87B001AC0FC4A3
:101920002B682360002101A8FFF7C1F9024B186062
:1019300007B030BDE41B00087C3D0020F0B589B045
:101940001422002103A800F039F90024214B00944F
:101950001A6B214F214D42F002021A631A6B02F0FA
:1019600002020092009A01941A6B42F001021A637B
:101970001A6B02F001020192019A02941A6B42F072
:1019800040021A631B6B03F04003029338460122A6
:101990004FF48051029BFEF72FFF224628464FF45A
:1019A0000041FEF729FF01264FF4805303A9384672
:1019B0000393049605940694FEF73EFE4FF400430D
:1019C00003A928460393049605940694FEF734FE73
:1019D00009B0F0BD00380240000402400018024087
:1019E00010B594B03022002108A800F0E7F80021DB
:1019F000142203A800F0E2F80024164B01941A6C9C
:101A000042F080521A641B6C03F080530193019BD7
:101A1000114B02941A6842F480421A601B680E94BB
:101A200003F480430293029B0223089301230B9348
:101A300008A810230C93FEF7EBFE0F23214603A802
:101A400003930494059406940794FFF791F814B057
:101A500010BD00BF003802400070004008B5FEF71E
:101A600063FDFFF7BDFFFFF769FFFFF753FFFFF7C8
:101A700019F9FEE707B50F4B00220092596C41F4AB
:101A800080415964596C01F48041009100990192A0
:101A9000196C41F0805119641B6C03F08053019361
:101AA0000F216FF00100019BFEF77CFD03B05DF894
:101AB00004FB00BF003802407047FEE7FEE7FEE788
:101AC000FEE7704708B5FEF749FDBDE80840FFF79F
:101AD0000EB900000F49D1F8883043F47003C1F803
:101AE00088300D4B1A68002042F001021A6098609D
:101AF0001A6822F0847222F480321A60074A5A600F
:101B00001A6822F480221A60D8604FF000638B605C
:101B1000704700BF00ED00E00038024010300024A4
:101B2000DFF834D0002103E00C4B5B584350043104
:101B30000B480C4B42189A42F6D30B4A02E00023A2
:101B400042F8043B094B9A42F9D3FFF7C3FF00F078
:101B500011F8FFF783FF7047000002202C1C0008DB
:101B6000000000201000002010000020843D002014
:101B7000FEE7000070B50D4E0D4CA41BA41000250F
:101B8000A54209D10B4E0C4C00F020F8A41BA41068
:101B90000025A54205D170BD56F82530984701357E
:101BA000EEE756F8253098470135F2E7241C000887
:101BB000241C0008241C0008281C000802440346BA
:101BC000934200D1704703F8011BF9E7F8B500BF55
:101BD000F8BC08BC9E467047F8B500BFF8BC08BC0E
:041BE0009E46704766
:101BE400FD1B000899180008000000000000000018
:101BF4008000000049444C450064656661756C745E
:101C04005461736B00000000000000000001020337
:081C14000406070809000000A6
:081C1C00E4E5FF7F0100000078
:041C2400B5010008FE
:041C2800910100081E
:101C2C000100000010000000AAAAAAAA0024F400D7
:0400000508001B21B3
:00000001FF
